:020000040800F2
:10000000084F00201505000881050008910500082B
:100010005107000861070008710700080000000090
:10002000000000000000000000000000F7040008CD
:100030008107000800000000E50400080102000834
:100040000102000801020008010200080102000884
:1000500001020008010200084916000849160008BC
:100060004916000849160008491600080102000850
:100070000102000801020008010200080102000854
:100080000102000801020008010200080102000844
:1000900001020008010200080102000849160008D8
:1000A0000102000801020008010200080102000824
:1000B0005113000801020008611300080102000842
:1000C0000102000801020008010200080102000804
:1000D00001020008291400080102000801020008BA
:1000E0004916000801020008010200080102000888
:1000F00001020008010200080102000801020008D4
:1001000001020008010200080102000801020008C3
:1001100001020008010200080102000801020008B3
:1001200001020008010200080102000801020008A3
:1001300000F09CBB70B50C46064600F05AF9094B1E
:10014000094A1D682919914202D8084A914204D2ED
:100150000C2333604FF0FF3500E0196000F051F9D7
:10016000284670BD0000002000000120084F00203C
:100170001046194600F084BB1046194600F092BBA9
:10018000132303604FF0FF307047132303604FF0D9
:10019000FF307047132303604FF0FF307047022990
:1001A0004FF0000303608CBF002001207047000067
:1001B00038B50C4600F044FC0D4AF4238B4208BFCE
:1001C000824203D203200B4900F01CF882098D09FA
:1001D00042EA81620849A2FB012301FB0533074A79
:1001E0001B0B02FB130023606060002038BD00BFC2
:1001F00040FFFF2302BD000883DE1B4340420F0087
:1002000000F0C6BA08B5104B0C461A68C2B90122F4
:1002100003281A6003D171460C480AF0D3F90C4840
:100220000AF060FA20460AF05DFA0A480AF05AFA23
:1002300000F0B8FA07480AF055FA07480AF052FAEF
:1002400000F0D7F800F0E4F8AC00002014BD00087E
:1002500018BD00083EBE00082FBD000808B900F018
:10026000DDB84FF0FF307047114B70B500241C60B3
:10027000104B114D18682E6800F090F80F4B53F892
:100280002030A3F10C0296420FD026B1B188062986
:1002900004BF0721B180062123F8081C33F8061C8F
:1002A000074B2A601980012070BD204670BD00BF39
:1002B000B0000020840100203C010020400100200B
:1002C00038010020052970B5838804460D4611D9F0
:1002D000052B25D8134B008904F10C0103EB80009A
:1002E00000F064F810492289012303FA02F20B6836
:1002F000134314E0052B13D90A4E008904F10C01B5
:1003000006EB800000F067F8228956F822303BB9EE
:100310000549012303FA02F20B6823EA02030B608A
:10032000A58070BD400100208401002008B50A4B63
:100330001B681A899B88052B01D982420AD900F0D3
:1003400063F818B1054B01221A6008BDBDE80840EA
:1003500000F0C0B808BD00BF3C010020B000002084
:1003600008B500F046F8094B094A1B8800241BB267
:1003700042F82340074A084D13682868013B21468C
:100380001360FFF79FFF2C6000F0A0F838010020F9
:10039000B4000020800100203C0100200023C2079F
:1003A00002D440080133FAE718467047036873B176
:1003B0000B6003685B684B6003685B6819600368E7
:1003C000596002685368934204D1596070470160D4
:1003D0000960496070470B688B4207D04A68136018
:1003E0000B685A600268914202D100E0002303606A
:1003F0007047EFF3108072B6704762B6EFF310806B
:10040000704780F310887047EFF30580C0B27047E3
:1004100008B500BE042000F0C3F9FBE707B50146AC
:100420000B480AF0CFF80B4B0193019B5A1E019227
:10043000002BFAD1BFF34F8F0749084BCA6802F46B
:10044000E0621343CB60BFF34F8F00BFFDE700BFF7
:100450003CBD0008A086010000ED00E00400FA05A4
:10046000134423F0030310B54FF077321C1F43F8F9
:10047000042C620742BFA3F108044FF0883243F80E
:10048000082C22464FF0807304E909000E4B44F813
:100490000C3C002344F8103C032344F8143C022392
:1004A00044F8183C012344F81C3C42F8201D0B235F
:1004B00042F8043D013B032BFAD120466FF00203C2
:1004C00040F8443D10BD00BF61030008FFF795FFF1
:1004D00001DFFEE7024A536843F0805353607047E0
:1004E00000ED00E0EFF3098020E9F00F40F804EDA3
:1004F000064909680860FFF7B7FE0448006801680C
:1005000001C9B1E8F00F81F3098800473C010020E0
:100510007047704708B5FFF7FBFF6A46114B9342DF
:1005200003D2114943F8041BF9E7104A104B114953
:100530008B4204D252F8041F43F8041BF7E70E4B1A
:100540000E4A934203D2002243F8042BF8E7FFF748
:10055000E0FF00F077FB09F013FFBDE8084000F072
:10056000A9BB00BF084D0020FEE7FEE7F8DD00084C
:1005700000000020AC000020AC000020084D00204E
:1005800008B504200149FFF73DFE00BF58BD000833
:100590000E490F4A0F4B6846904204D8984202D940
:1005A0004FF0000103E009468D464FF001010420A1
:1005B0007246024202D1EFF3088001E0EFF30980B6
:1005C0002DE9F00F6B4600F007B800BF084F002080
:1005D00000000120600500202DE9F04F9846464BB1
:1005E00091461A68454B8DB09A4204460D4602D09A
:1005F00043480AF077F81DB142480AF073F876E0F4
:10060000414BE0689A6BD4F81CA002925A6B9D6A29
:100610000392DA6A1AF4007F04921A6BDB6B07907C
:10062000606908BF04F120060890384818BF04F13B
:10063000240605920693D4F810B094E80E00A7693A
:100640000B930A9209910AF04DF8079B09A90093B0
:100650000EC92F4809F0B6FF089A3B465946CDF817
:1006600000A02C4809F0AEFF2B480AF03BF82946C1
:100670002A4809F0A7FF0499294809F0A3FF059922
:10068000284809F09FFF2848069909F09BFF2A0493
:1006900003D52648029909F095FF2B0603D5244877
:1006A000039909F08FFF23480AF01CF849462248B5
:1006B00009F088FF21480AF015F83946204809F06A
:1006C00081FF69461F4BC91A03D51F48494209F0EB
:1006D00079FF20468268C36801698C4641698E466D
:1006E000B546414691E8F00F4168006801BE05201B
:1006F0001649FFF787FD00BF084D0020FEE7FEE723
:1007000064BD00087ABD000800ED00E0A9BD000846
:10071000C4BD000801BE00083FBE000848BE000876
:1007200058BE000868BE000878BE000888BE0008F1
:1007300098BE0008A8BE0008ADBE0008BFBE0008F5
:10074000F0BE0008604E002018BF000845BF00083A
:1007500008B506200149FFF755FD00BF58BF000846
:1007600008B507200149FFF74DFD00BF6BBF00082A
:1007700008B508200149FFF745FD00BF7DBF00080F
:1007800008B509200149FFF73DFD00BF91BF0008F2
:1007900008B50A200149FFF735FD00BFA3BF0008D7
:1007A000002070472DE9F04F1F4B89B01B881F4870
:1007B0001F49204A0026ADF81C30B04609F002FF60
:1007C0001D4F07F1800957F8044BFCB1B4F804B091
:1007D0001A4BE06A53F82BA0656B00F029FB07AABF
:1007E000BBF1050FC8BF0132B4F90610009223898E
:1007F000281A0193636B03900293E36A06440493FF
:100800000F48226B5346A84409F0DCFE4F45DAD16D
:100810000C4902968DE802010B4A0B460B4809F081
:10082000D1FE09B0BDE8F08FB1BF0008B3BF00082A
:10083000ECBF0008F1BF0008B80000200400002051
:10084000F7BF000848C000084AC000082AC00008D6
:1008500008B5044800F030FFBDE80840024800F049
:100860008FBA00BF24000020C801002000200249E8
:10087000024A034600F07EBD20A10700510800088F
:1008800038B505460C4605482946224600F0FEFECE
:1008900018B9034800F048FAF5E738BD24000020F5
:1008A000C8010020034610B50C4600201946224618
:1008B00000F0ACFD204610BD002000F08FBC000011
:1008C000054B0246186828B9002A014608BF0122D4
:1008D00000F024BC704700BFD4010020F0B51E4ECC
:1008E0001E4D33680020013333601D4BB6461A6835
:1008F00018602B681B4C1946226021B1DEF800708D
:100900008E68BE4202D9296018B9F0BD0846096850
:10091000F3E700210160E2B133B1516858688142C8
:1009200094BF1146194600E01146084612681B683C
:100930000AB903600BE00BB9026008E055685E6815
:10094000B54294BF15461D4605602846EEE7216076
:10095000F0BD2360F0BD00BFD8010020E001002001
:10096000D0010020DC010020F8B52C4F2C4C0123D5
:100970003B60236833B9FFF7B1FFFFF79DFF0130FC
:10098000FBD02FE0FFF798FF054610E0864205D91F
:1009900023685E68FFF790FFA842F7D223681A68C1
:1009A0001869226000225A609A60DA6890472368CA
:1009B00023B9FFF781FF85420BD911E05E68FFF78D
:1009C0007BFFA842E4D38642E2D9361A132EF0D830
:1009D000DEE7236843B9FFF76FFFA84206460BD254
:1009E000FFF77CFF0025E2E75E68FFF765FF063E44
:1009F00014308642DBD309E010F1140F04D3FFF763
:100A00005BFFB042FBD2EBE74FF0FF3600233B60C9
:100A10003046BDE8F840FFF753BF00BFD4010020C7
:100A2000DC01002008B500200121044A00F038FC58
:100A3000BDE808404FF0FF30FFF742BF69090008EA
:100A400038B5FFF739FF074B05461C68FFF734FF41
:100A50008542F6D823460022141843F100052046AB
:100A6000294638BDD8010020F8B504460D46FFF7E9
:100A700023FF002385420646236010D3A5F11E0301
:100A800083420CD21E35FFF717FFA842FBD8FFF7B1
:100A900013FFA842FBD3E368206998472DE0184B69
:100AA000B5421B68656038BF0133A360FFF7A1FC46
:100AB000AE42074602D2134B194610E0124A1368A1
:100AC0002BB158686168884201D81A46F7E723605D
:100AD00014600FE056686068864203D813461A68AF
:100AE000002AF7D122601C600B68A34202D1A81F24
:100AF000FFF7E6FE3846FFF784FC0020F8BD00BF94
:100B0000D8010020DC010020D0010020436870B52E
:100B1000054613B9806800B970BDFFF76AFC1A4B2F
:100B200006461A68AA420ED12A681A6012B15068A5
:100B3000063801E04FF0FF30FFF7C2FE00241BE053
:100B4000AA4210D013461A68002AF9D10F4A136836
:100B50003BB1AB4203D12B68136001240CE01A4671
:100B6000F5E70B4B05E02A681A60F6E7AC42FAD0CD
:100B700023461C68002CF9D1002330466B60AB6023
:100B8000FFF73FFC204670BDDC010020D0010020B3
:100B9000E0010020C36870B505460C46C3B1FFF7FD
:100BA000B5FF1D2C0CD8FFF787FE0646FFF784FE25
:100BB000801BA042FAD3EB682869BDE87040184753
:100BC000FFF77AFE01192846BDE87040FFF74CBFD9
:100BD00070BD00002DE9F04104460E4617461AB9D3
:100BE000BDE8F041FFF7D6BFFFF790FFFFF764FEC7
:100BF000124B80461D68FFF75FFE8045F6D83044F3
:100C0000A560B0423D4438BF01356060A560FFF784
:100C1000F0FB0B4A136853B19D68A1688D4206D85A
:100C20005D6861688D4202D81A461B68F3E723604D
:100C30001460BDE8F041FFF7E4BB00BFD80100201D
:100C4000E001002008B500F085F90C4B4FF440118D
:100C50009A6942F008029A61094A11609A694FF450
:100C6000407142F010029A61064A51609A6942F05E
:100C700020029A61A3F57C43196008BD0010024070
:100C8000000C01400010014008B501F087F803484E
:100C900009F098FC00F026FD002008BD8FC0000878
:100CA00008B5034B01201B68FFF77AFDF9E700BF89
:100CB000E40800201FB5FFF79CFB0E4B00240093B7
:100CC0000D4B01941B684FF4807102930F220C238B
:100CD0000A4800F0B5F80A4B4FF4C0618DE81800DF
:100CE000084B07221B68084802930C2300F0A8F861
:100CF000FFF7ECFBA10C000834000020E401002009
:100D0000890C000838000020E402002010B50446D9
:100D1000216839B92046012200F00EF90028F7D0E9
:100D2000012010BD002010BDF0B585B00546FFF7CD
:100D3000EDFF00BBFFF75DFB04462846FFF7E6FF2B
:100D4000064618B12046FFF75CFB14E00B4F02216A
:100D50003868FFF7B7FA3A6804A9138941F80C6DAF
:100D60009BB2281D0293039200F030F82046FFF753
:100D700048FBFFF7AFFB05B0F0BD00BF3C01002012
:100D800038B50446FFF735FB236805462BB1201D17
:100D900000F015F828B920602846BDE83840FFF774
:100DA00030BB846807212046FFF78CFA2489284647
:100DB000FFF727FB2046BDE83840FFF7B7BA0368C6
:100DC0000BB11A68026018467047000010B503683E
:100DD00073B18B4203D103200749FFF713FA5C6814
:100DE0004A68944202D90B60016010BD1846EEE7D4
:100DF00001600B6010BD00BF02BD000808B5FFF721
:100E0000F8FA094B1B689A88052A81BF1A89074B93
:100E100053F82210096888BF43F82210FFF7F1FA4F
:100E2000BDE80840FFF756BB3C0100204001002010
:100E3000031F53F8042F9A42FBD0181A7047000082
:100E40000F2A2DE9F74F8146884616461F4668D877
:100E500010F003050FBF0D46C5F10405A9444D1B55
:100E6000383D25F0030C190709EB0C0405D54B465A
:100E7000A34204D21B600433FAE7C9F80090CDF80E
:100E800004C0FFF7B6FA8346DDF804C00123284A00
:100E90001FFA83FA52F8235045BB42F823400C98BE
:100EA0004A466346A4F806A00D99FFF7D9FA0E9BAF
:100EB000204A23634FF0FF336362136820600133DD
:100EC000B6B21360FA07C4F82C90C4F834802681B7
:100ED000A580E56025616561A561E5612562A56282
:100EE0000DD520460121FFF7EDF915E00133212B47
:100EF000CDD15846FFF785FA4FF6757013E02046BE
:100F00000721FFF7DFF97B0706D45846FFF779FA88
:100F10003046FFF70BFA02E05846FFF772FA5046E8
:100F200001E04FF6EA7000B203B0BDE8F08F00BFF9
:100F3000B40000208001002050E8003F8B4203D025
:100F4000BFF32F8F0020704740E80023B3FA83F0EF
:100F50004009704708B501F031F92A4B1A6842F090
:100F600001021A605968284A0A405A601A6822F039
:100F7000847222F480321A601A6822F480221A6085
:100F80005A6822F4FE025A604FF41F029A601A68EF
:100F900042F480321A6019681A4A8803FBD51B494B
:100FA000086840F010000860086820F0030008603E
:100FB000086840F002000860516851605168516053
:100FC000516841F480615160516821F47C11516095
:100FD000516841F4F8115160116841F0807111605D
:100FE0001968084A8901FBD5516821F00301516055
:100FF000516841F0020151605A6802F00C02082A5F
:10100000FAD108BD001002400000FFF000200240AD
:101010000B8A10B59C0719D58B899B0716D50B8AAF
:1010200023F002031B041B0C0B82948C938EA4B23E
:101030009BB29C4265D38B8923F002031B041B0CDB
:101040008B81344B53F8203000201BE00B8A5C0767
:101050001AD58B895B0717D50B8A23F004031B0471
:101060001B0C0B82948C138FA4B29BB29C4248D36E
:101070008B8923F004031B041B0C8B81254B53F835
:101080002030012098473CE00B8A1C0719D58B893A
:101090001B0716D50B8A23F008031B041B0C0B82BD
:1010A000948C938FA4B29BB29C422AD38B8923F059
:1010B00008031B041B0C8B81164B53F820300220B5
:1010C000E0E70B8ADC061AD58B89DB0617D50B8A7D
:1010D00023F010031B041B0C0B82948CB2F84030DD
:1010E000A4B29BB29C420CD38B8923F010031B0447
:1010F0001B0C8B81074B53F820300320C2E70023E1
:101100000B82054B1B681BB1BDE81040FFF776BE94
:1011100010BD00BFE8080020B000002010B520B1CD
:10112000012851D12A4C2B4B02E02B4C4FF080432D
:10113000988920F001000004000C9881032943D80D
:10114000DFE801F00211202F91B2120C9986A286DD
:101150001A8A22F002021204120C1A829A8992B29E
:1011600042F002022DE091B2120C198722871A8AEE
:1011700022F004021204120C1A829A8992B242F0EE
:1011800004021EE091B2120C9987A2871A8A22F0FB
:1011900008021204120C1A829A8992B242F00802D2
:1011A0000FE091B2120CA3F84010A4F840201A8A64
:1011B00022F010021204120C1A829A8992B242F0A2
:1011C00010029A81002010BD4FF0FF3010BD00BF0B
:1011D000000C0040000800400004004010B101284D
:1011E00010D01EE0104A4FF08043988C918C9B8C5D
:1011F000928C80B29BB243EA024340EA014098429B
:10120000F0D17047094B0A4A988C918C9B8C928C38
:1012100080B29BB243EA024340EA01409842F1D1D6
:1012200070470020704700BF0004004000080040E5
:10123000000C004010B1012809D070470B4A1388F8
:101240009BB243F0010313804FF0804208E0084A4C
:101250001388A2F580629BB243F00103A2F8003428
:1012600013889BB243F001031380704700040040D1
:10127000000C004010B1012808D07047074B4FF018
:1012800080521A604FF000521A607047034B4FF0C3
:1012900080421A604FF480225A60704700E100E0FB
:1012A00070B5044680B1012843D123482025C36985
:1012B00043F00C03C361214B102083F81E0383F815
:1012C00032031F481F4B0EE01B48C36943F0030362
:1012D000C3611A48102380F81C3380F81D331A4864
:1012E0001D464FF08043194E01EBC10146F8242002
:1012F00084221A80042202809A88C90092B242F0A5
:1013000020029A804FF6FF7289B29A851985028968
:1013100092B242EA0503038103899BB243F00703BB
:1013200003812046FFF7A6FF2046FFF783FF00203A
:1013300070BD4FF0FF3070BD0010024000E100E0D2
:10134000000C00400008004000040040E8080020B5
:1013500000204FF08041014AFFF75ABE00040040D0
:1013600001200249024AFFF753BE00BF00080040B7
:10137000000C00402DE9F0410C4617469846064601
:10138000002831D11A4A1B4893690B2143F480434A
:10139000936100F027F931460422174800F062F803
:1013A00016491748B1FBF4F1068105890A09ADB267
:1013B00092B245EA021401F00F02224392B2028176
:1013C000838920229BB243F4005343F00C038381B2
:1013D0000C4B5A6083899BB2134383810A4B30467E
:1013E00083E88001BDE8F0816FF00100BDE8F08185
:1013F00000100240090801400A08014000A24A0406
:101400000038014000E100E0F00800200A44914269
:1014100007D0044B18880006FBD511F8010B988003
:10142000F5E770470038014008B50B4B1A88910664
:1014300006D59988094BC9B21A685868904703E0E5
:101440001A88120748BF9B88054B1B681BB1BDE873
:101450000840FFF7D3BC08BD00380140F008002069
:10146000B0000020F0B5DFF884E0C0F38327DEF899
:101470001860023F0424BC40344300F00F0520F004
:101480000F03CEF8184000F00700EC1053F824705A
:1014900080000F26864027EA0606012943F82460CB
:1014A0000BD1042A1FD153F8246003228240324317
:1014B000A94043F82420596113E053F8246002F056
:1014C0000C018140314343F82410D8680121A94020
:1014D00020EA0101D960D96802F00102AA400A435A
:1014E000DA600020F0BD4FF0FF30F0BD0010024088
:1014F0002DE9F84F00F00F054FF0010909FA05FA40
:101500006FEA0A088E469B4606461746314C002174
:101510002368724608EA03032360FFF7A3FF2E4AFD
:101520000A9B42F835B002EBC50253602B4A0F21EB
:101530009369042D43EA0903936105F00C0303F159
:10154000804303F5803306F0030298684FEA820275
:1015500001FA02F120EA01019960C6F38326996835
:10156000A6F1020606FA02F646EA01069E60A368A4
:1015700008EA0303A360A26807EA090303FA05F374
:1015800043EA0203A360E36827FA09F708EA0303C2
:10159000E360E36807FA05F747EA0307E760104AE4
:1015A00003DC063509FA05F303E0092D03DC4FF4EB
:1015B0000003136002E04FF48073536063680020FF
:1015C00008EA0303636023684AEA03032360BDE873
:1015D000F88F00BF00040140F8080020001002400E
:1015E00000E100E030B50F4DC0F38324AA69023C4E
:1015F0000423A3401343AB61C0F3C00220F00F03E8
:1016000000F0070053F8225080000F24844025EAA0
:10161000040443F8224053F8224081400C4343F82D
:10162000224030BD0010024020F00F02012300F0E4
:101630000F0083401361704720F00F02012300F078
:101640000F0083405361704710B500240C4A0123FA
:101650005169A3400B4207D053610A4B03EBC4020C
:10166000506853F8343098470134102CEED1064BB3
:101670001B681BB1BDE81040FFF7C0BB10BD00BF29
:1016800000040140F8080020B0000020134670B5A7
:1016900001397BB18568C468A5420BD084680668AF
:1016A000651C85604568013B013D2C40345D01F8B7
:1016B000014FEEE7D01A70BDC36830B58468426848
:1016C0001B1B93421FBFC368046802F1FF325D1CFD
:1016D0001FBF1340C560E154002008BF4FF0FF302A
:1016E00030BD000000B50421A1B0074800F054FD52
:1016F000064808F0F7FF064808F0F4FF0548694679
:10170000802205F0FDFA00BF78090020E6C000083D
:1017100006C100085CC10008F0B5082195B0054677
:101720003C4800F039FD01211122042005F046F863
:10173000394C2060284608F06FFC85B227460DB969
:1017400036481EE0042314AE07A80021102246F8F4
:10175000403D08F066FE20686BBA0028ADF81430F2
:1017600005DA2F4808F0BEFF002323604FE0314622
:10177000202205F099F8002806DA4FF0FF332948B7
:10178000236008F0AFFF42E02748294608F01AFF1F
:10179000202303930CAB009303AB019338682349D8
:1017A0004FF48072002305F0D1F8002801DA2048B8
:1017B00001E003D11F4808F005FFE9E71E4B1B6855
:1017C000012B08D1194809F091FA00210246174867
:1017D00008F027FEDCE7194809F088FA0028D7D17D
:1017E00016480FA92E2204F05FFE044628B908F01F
:1017F0001DFC1C230360224600E0104ABDF8343073
:101800000A495BBA9BB20E4808F0DCFEC0E7002034
:1018100015B0F0BDD40F00203C00002088C10008A6
:10182000A6C10008C0C10008D5C100089C0D002059
:10183000FEC1000810C2000898090020A00F002077
:1018400024C200082DE9F04F0746E5B0BF4D0FACAC
:1018500005910FCD0FC42B680020236009F06CFBAD
:1018600008F048FF022F01DDB9480BE0059BB9499C
:10187000186809F042F80646002840F06D82022FF1
:1018800003D0B54808F09EFE66E2B44BB44800931E
:10189000B44B4FF480610193B34B062202930823AB
:1018A000FFF7CEFA002807DCB04B4FF0FF32B0480C
:1018B0001A6008F017FF4FE2B246354608F042FFC3
:1018C000AC4C0440002CBEBF04F1FF3464F00104B2
:1018D000013408F037FF1D2390FBF3F707FB1300DB
:1018E000071D2146A4483A4608F06CFEA34B4CB9AC
:1018F00001221A60A24AA7FB02231046194606F0ED
:10190000FDFBDBE700220CA81A6009F015FB08F0CC
:1019100019FFDFF86082974C00EA0808B8F1000F61
:10192000BEBF08F1FF3868F0010808F10108CDF8E2
:10193000188008F007FF0440002CBEBF04F1FF34FC
:1019400064F001040134B8F1010F079442D108F0AA
:10195000F9FE032390FBF3F303EB4303C31A5D1C6F
:101960002946884808F02EFEA80008F02FFD0646FC
:1019700018B9854808F01EFEEEE14FF00008A845B2
:1019800008DA4FF4807008F021FD46F8280008F1CD
:101990000108F4E7A6F104094FF00008A84519DA98
:1019A00059F804BF08F0CEFE052390FBF3F303EBD8
:1019B0008303C31A08F101080FAA52F823205846DE
:1019C0007249434608F024FFD9F80010704808F027
:1019D000F9FDE3E7012C26D108F0B4FE654B034086
:1019E000002BBEBF03F1FF3363F00103013303F1AA
:1019F000010A5146674808F0E5FD4FEA8A0008F001
:101A0000E5FC654B186098460028B2D00024544588
:101A100009DA4FF48070D8F8009008F0D7FC49F844
:101A200024000134F3E74FF000084FF000095B4851
:101A300009F05CF998B90DA809F07EFA0D980C9997
:101A400008F0EEFA80463846894608F0E7F9024683
:101A50000B464046494608F0C1FA0028E7D14F48F6
:101A600009F044F9002800F04081384608F0D6F922
:101A7000CDE90801DDE908234046494608F0A4FA0B
:101A8000002800F03281002427460DA809F054FAFE
:101A90000D980C9908F0C4FA069BCDE90A01012BB8
:101AA00040F08B800027AF4280F2848056F8278078
:101AB000059B4046D3F8049009F018F904230690DA
:101AC00000211FA810221C93249308F0AAFC27A829
:101AD000334904F063FC002800F03681484608F0E2
:101AE0009BFA012143BA834611220420ADF89430B9
:101AF000ADF8743004F062FEB0F1000902DA294852
:101B000008F0F0FD24AB00932023019348464146A2
:101B1000069A002304F094FF002803DA224808F014
:101B2000E1FD09E01E4A1FFA8BF32048414608F008
:101B300049FD1F4B01221A6042F2107006F014FB9F
:101B4000484604F07FFD0137ADE700BF74C10008CF
:101B500043C2000824C1000865C200081917000824
:101B60009C09002086C200088BC200083C000020AF
:101B700096C2000801000080B0C200089809002049
:101B800040420F00E2C2000801C300080EC3000873
:101B900018C300082DC30008D00F00209C0D0020A2
:101BA000A00F0020A6C1000851C3000860C30008B0
:101BB0009C0E0020002301270693079B012B40F079
:101BC0008A806749524624A808F022FE059B24A873
:101BD0005C6809F08BF8042300218346102217A8C3
:101BE00014931C9308F01DFC1FA85E4904F0D6FB5B
:101BF000002800F0AD80204608F00EFA0DF17009C3
:101C000043BA8046012104201122A9F80430ADF81E
:101C1000543004F0D3FD041E02DA534808F062FD8C
:101C200020230193CDF80090204624A95A46002392
:101C300004F006FF002803DA4C4808F053FD06E0E4
:101C40004B4824A9474A1FFA88F308F0BBFC24A894
:101C500008F0E2F9B0F1000906DC204604F0F2FCDD
:101C600000230124079336E0424B1B68012BF4D17B
:101C70004FF0000820220EAB0E9214AA8DE80C0043
:101C800020463D494FF48072002304F05FFE002897
:101C900001DA3A4801E003D1394808F093FC15E035
:101CA000384808F08FFC3449374808F08BFC374B34
:101CB00031491B6853F8280008F029FE2E4809F026
:101CC00015F8002102462C4808F0ABFB08F101088A
:101CD000C845CFD1C1E7DDE90A01DDE9082308F0F5
:101CE0007DF900287FF4D1AE01E00446074628487C
:101CF00008F068FC012F0BD10027AF4205DA56F837
:101D0000270008F06BFB0137F7E7304608F066FB69
:101D1000012C0DD1002454451C4B06D01B6853F8F0
:101D2000240008F05BFB0134F5E7186808F056FB67
:101D300000214FF48072174808F073FB00212E2217
:101D4000084808F06EFBB9E5134808F0CBFCC5E67F
:101D5000114808F0C7FC4EE7012065B0BDE8F08FE0
:101D600015C30008A00F0020A6C1000851C3000839
:101D700060C300089C0E0020A00E0020FEC10008D9
:101D800010C200087BC3000881C30008D00F0020E8
:101D90008CC300089C0D0020A5C3000808B5FEF701
:101DA00041FE02F0C3F902F04BFC00F0E5FA04F04A
:101DB00059FA00F005F8BDE8084000F09DBF0000AA
:101DC0001FB50E4B0E4C0093A3F60203019303F2D2
:101DD000FF730293204600210322A3F2FD7306F055
:101DE00059FA002807DB009406484FF4806103226B
:101DF000054B02F0EFF804B010BD00BF0410014025
:101E00001414002014100020F4C3000810B5026A56
:101E1000C469436A141B9C4201DD002010BD541CA0
:101E200013400462F9D4826A03C902EBC30383E856
:101E30000300012010BD00002DE9FF411E462A4B82
:101E4000074653F82150294B90461B8803802DB933
:101E50003046FEF7D6FA4FF0FF3440E0AB88032B54
:101E60002FD028463946FFF7D1FF044648B1304607
:101E7000FEF7C7FA1E4B1B689B889BB2052B2DD122
:101E80002AE0B8F1000F03D13046FEF7BAFA26E097
:101E9000DFF85C8004A9D8F8002041F80C0D138904
:101EA00005F118009BB202930392FEF78FFFD8F85A
:101EB0000000476183889BB2052B0CBF05210421DC
:101EC00005E06B6903C883E8030028460721FEF795
:101ED000F9F93046FEF795FAFEF7FCFA01242046A0
:101EE00004B0BDE8F08100BFB4000020380100203C
:101EF0003C0100202DE9F04105460E46FEF779FA37
:101F0000364B374A1B8807461BB252F82340A06A5B
:101F1000D8B1E369226A9A4217D05A1CE261626A18
:101F20001340984646B95A1C06D13846FEF769FA5E
:101F30004FF0FF30BDE8F081002B0ADB00EBC3035C
:101F400093E8030085E8030004E0002EEDD04FF095
:101F5000FF38656104F11800FEF731FF80B9B8F170
:101F6000000F09DA20460321FEF7ACF93846FEF7E8
:101F700048FAFEF7AFFA2EE03846FEF742FA2AE0BA
:101F8000B8F1000F86680DDB04F11C022CCA9A1A06
:101F9000AA42A16AD7BF5A1C4FF0FF332B402262DE
:101FA00001EBC305736993E80300B38885E8030078
:101FB000052B07D00023736130460721FEF782F915
:101FC000348900E00F243846FEF71BFA0E2C02D8A5
:101FD0002046FEF7ABF90120BDE8F0813801002072
:101FE000B400002038B50446FEF703FA074B21463B
:101FF0001B8805462380064B1868FFF707FF044639
:102000002846FEF7FEF9204638BD00BF3801002003
:102010003C0100200F4B10B553F821300246B3B1FC
:1020200021210180998803290BD103C85C6984E8C8
:10203000030018460721FEF745F9074B01201860F9
:1020400010BD1846BDE810401146FFF7DFBE4FF047
:10205000FF3010BDB4000020B000002070B5054670
:102060000C46FEF7D1F928B128462146BDE870405C
:10207000FFF7D0BF094B1B881BB2A34204D12846EF
:10208000BDE87040FFF7AEBFFEF7B3F92146034647
:1020900001222846BDE87040FFF7CEBE380100207F
:1020A00070B505460C46FEF7AFF9064628B128463E
:1020B0002146BDE87040FFF7ADBF0A4B1B881BB23D
:1020C000A34204D12846BDE87040FFF78BBFFEF75E
:1020D00090F92146034632462846BDE87040FFF796
:1020E000ABBE00BF380100202DE9F041104D804605
:1020F0002B880F461BB29342144603D103200D498F
:10210000FEF780F8FEF775F9064629880A4B09B2F2
:1021100053F8215005212846FEF7D4F86F61404658
:1021200021463346BDE8F0410122FFF785BE00BFDE
:102130003801002002BD0008B400002070B504463C
:102140000D46FEF756F9B4F90020104B064653F839
:102150002240BCB1A388052B02D0FEF752F911E052
:10216000636995E8030083E8030007212046FEF732
:10217000A9F824893046FEF744F92046FEF7D6F840
:10218000012070BD4FF0FF3070BD00BFB4000020D3
:102190000121FFF7AFBE000049B14A1E114006D130
:1021A000054B1B689862D96119625A6201E04FF0D1
:1021B000FF310846704700BF3C010020094B4FF03B
:1021C00000629A60102283F82220DA77002303F15C
:1021D0006042013302F5614210213C2B82F800136A
:1021E000F5D1704700ED00E0884210B5044601D1FA
:1021F000446808E003465A682AB18A4201D013466F
:10220000F9E74A685A60002308464B6002F09AF8E2
:10221000204610BD38B5154601F03AFE044668B1B7
:10222000B4F90800294601F069FD002802DC2846BF
:1022300002F088F8204601F051FEEFE738BD0000BB
:1022400038B58B68054658800C4600F00BFC18B971
:1022500003201349FDF7D6FF636800221BB1D9683C
:102260005B680A44FAE7B0F85C319A4204D9204628
:10227000BDE8384002F066B8B0F85A31DB0708D53F
:102280000120084940F20222234601F0FFFC30B948
:10229000EDE72846214601F023FD0028E7DD38BDA3
:1022A00002BD00080000FFFFF8B507460E461546C0
:1022B0008C6800231AB1D16852680B44FAE75BBA04
:1022C000A380A379FF2B0AD12B7C023BDBB2022B2C
:1022D00003D8284AD35CFF2B00D13B23A371E379B9
:1022E00043B90FB9402304E0384600F0BBFB90F837
:1022F0005E31E371A268E368134321D12269636907
:1023000013431DD1A269E369134325D1216A606A91
:102310000BBA02BA002B08BF012A1DD10023237279
:102320006372A372E37223736373A373E3732374FF
:102330006374A374E37423756375A3750123E37554
:102340002846314601F0D2FD002803DA831C08BF7D
:102350000020F8BD0020F8BD04F11801384600F057
:1023600029FC01460028EBD004F10800102208F0F7
:102370004DF8E5E702C400081FB50A4CB4F9003077
:1023800063B9094A09488DE80C00094B4FF4806194
:10239000029304220823FEF753FD2080B4F90000C5
:1023A00004B010BD48140020252500084A14002060
:1023B000FDC30008292A70B50C46154606D03A2AF6
:1023C00006D0112A0CBF0423002302E0022300E000
:1023D0000323292D237405D03A2D14D1214607F06B
:1023E0009FF810E000232374616839B191F910302F
:1023F000022B03D12046FFF7F7FEF5E702232374F3
:10240000204600F023F8104994F9100001F052FD25
:1024100029460646022001F04DFD3118204603D121
:10242000BDE8704001F08EBF013901F077FF94F9EB
:10243000100022460449FFF7EDFE29462246BDE87A
:1024400070400220FFF7E6BE0000FFFF70B50546B2
:1024500018B903203249FDF7D5FE044694F910302F
:10246000013346D06468002CF8D1284690F910302A
:10247000022B08D1C368282B05D183681B7803F091
:10248000F003602B04D040680028EFD134E03546DB
:102490008668EB68B18849BA89B2994202D2284667
:1024A00001F0F4FEB269F369134307D1316A706A2F
:1024B0000BBA02BA002B08BF012A13D006F118018B
:1024C00024B9204600F03CFB044602E020B200F0B4
:1024D0000FFBB0FA80F0400920B12846BDE87040FB
:1024E00001F030BF20B22946B279BDE87040FFF755
:1024F00061BFA3685C88B8E7AB681B7803F0F003A2
:10250000602BEAD1284601F04BFF06460028E4D0B4
:102510002821022201F044FE0028B8D13046DDE730
:1025200002BD00082DE9F0479CB000AF082107F17B
:102530003000FFF731FEAF4B0220BB62AE4B07F11C
:1025400024011B88BB8501F06BFC40F20523FB8254
:1025500007F10C00FFF71CFEFB896FF400721344B7
:10256000212BF5D801A252F823F000BFF525000871
:10257000FD25000899270008992700085125000823
:102580005125000851250008512500085125000853
:102590005125000851250008512500085125000843
:1025A0005125000851250008AD270008B92700086B
:1025B000C3270008512500085125000851250008AF
:1025C00051250008CB270008512500085125000897
:1025D0005125000851250008512500085125000803
:1025E0005125000851250008D3270008DB270008E3
:1025F000E32700083869FFF729FFA9E73B699846F8
:1026000093F9103001330CD1D8F8083040465E8879
:1026100001F0C6FE044608B940460AE04368984601
:1026200001E044460026404601F0BAFE054618B9CE
:10263000204601F087FE8BE7A045836818BF6060E5
:102640001A7E08BF0446FF2AD0F8048023D186B939
:1026500007F11C0001F0A4FB0028E9D0002001468E
:1026600002460346BE8B01F0A5FB0028E0D0446083
:10267000044636B2304629464246FFF715FE00288A
:10268000D6DBA26830461379214643F0400313712C
:10269000FFF7D6FD5CE79869D96950EA010209D1D4
:1026A000596AD3F820E008BA9EFA8EF1002908BFD3
:1026B00001280BD018339A46002E38D107F10800B4
:1026C000194600F03DFA0646002836D030B22946B9
:1026D0004246FFF7E9FD0028AADB28460022C3682E
:1026E00040681A440028FAD10146022301F03CFD5B
:1026F000064600289CD083689846EA684046A96848
:1027000007F084FE4246EB686D681A449046002D3F
:10271000F3D1204601F016FE384B3146B3F90000E4
:1027200001F0ECFA00283FF713AF304681E730B2F2
:10273000194600F0DDF90028C8D10823FB7132B238
:1027400007F11C00F91D534603F016FBE946064647
:10275000C0B129464246FFF7A7FD002812DB94F9D5
:102760001030FD79013304D120462146FFF73CFDAE
:1027700004460020014607F11C022B4601F01AFB1B
:10278000014618B9204601F0DDFD03E04460304603
:10279000FFF756FDCD46DBE66FF0850307F10C0031
:1027A00007F11401BB61FFF7C9FCD1E63A69537E1A
:1027B00023F008035376CBE60020396900F086F950
:1027C000C6E6386900F0EEFDC2E6386900F076FE34
:1027D000BEE6386903F04CFABAE6386903F09CFAB1
:1027E000B6E63B69587C00F00F0001F097FF00232C
:1027F0000374ADE60000FFFF3801002048140020FC
:1028000002684368134306D18268C36813430CBF50
:10281000012000207047002070472DE9F04100F5AD
:10282000A876074630468846FEF77EFA002538240B
:1028300004FB05744146204603F05CFD30B10023E3
:1028400023606360A360E360237402E00135062D1A
:10285000EDD13046BDE8F041FEF792BA2DE9F047E0
:10286000002680460D4692469946344608EB0607F8
:102870003846294603F03EFD00284AD13846FFF786
:10288000BFFF10B1002C08BF3C463836B6F5A87F14
:10289000ECD12746002C3CD020462946102207F0D8
:1028A000B5FD237884F811A0FF2B84F8109016D082
:1028B000B8F85A31DB0712D500F012FF814670B12B
:1028C00008F5A8763046FEF75BFAB8F958012146BC
:1028D0004A464B4600F0C8FF3046FEF725FA2B78F3
:1028E000FF2B03D1237C43F001030DE029686868C6
:1028F0000BBA094902BA8B424FF0000008BF82426E
:1029000003D1237C63F07F03237440F211236463BB
:1029100063863846BDE8F087000080FE30B531B1EF
:102920000378FF2B03D1437803F00F032BE00168FA
:102930004468164D0BBA22BAAB424FF0000408BFF0
:10294000A24208D00278FF2A07D1437803F00F0390
:10295000022B02D117E0022315E04FF6C061038875
:102960005BBA23F03F031B041B0C8B420AD0FF2AE7
:1029700006D1437803F00F03052B18BF0E2302E0A6
:102980000E2300E00523184630BD00BF000080FE86
:102990002DE9F8430025804691461F460C462E46F9
:1029A0003FB101233A78AB4013421AD0237CDB07B6
:1029B00017D42046FFF724FF98B92046494603F074
:1029C000AEFC37B999F80030FF2B02D0637C83420C
:1029D00007D8B04205D9B8F1000F01D0C8F80040BF
:1029E00006460135062D04F13804D9D13046BDE83C
:1029F000F88300007FB51A4C0646B4F858512BB244
:102A000083422AD04DBB29461022684607F009FDB3
:102A1000FF238DF8003002238DF8013004F5A870F3
:102A200001238DF80F30FEF77FF94FF4A063A4F86F
:102A30005C31402384F85E31694680222B46204673
:102A4000A4F85861A4F85A51FFF708FF04F5A870DC
:102A5000FEF796F9204600F03FFD04B070BD00BFC0
:102A60004C180020034BB3F9582182420CBF184682
:102A7000002070474C1800202DE9F0410C46174605
:102A80009846FFF7EFFF0546C0B12046C4B1FFF7F7
:102A9000B7FEB8B9802F16DC05F5A8763046FEF7EC
:102AA00043F921463A4643462846FFF7D7FE0446F7
:102AB0003046FEF765F92046BDE8F081BDE8F081BB
:102AC000BDE8F0810020BDE8F081000010B50C46A3
:102AD00020B90648B0F958313BB102E0FFF7C2FF18
:102AE0002146BDE81040FFF798BE10BD4C180020ED
:102AF0002DE9F8438946FFF7B5FF0446E8B100F534
:102B0000A8763046FEF710F9002504EB050840468C
:102B1000494603F0EFFB074628B13046FEF730F98F
:102B20004046BDE8F8833835B5F5A87FEDD130468D
:102B3000FEF726F93846BDE8F883BDE8F8830000C3
:102B400038B50546084CB4F9580125B9FFF7D0FF50
:102B500028B9002005E0FFF7CBFF2860F8E7B4F8BC
:102B6000580100B238BD00BF4C180020F7B50F4621
:102B7000002602AC44F8046D05460C48FEF7D4F874
:102B800020460B493A463346FFF702FF38B11DB9DC
:102B9000074BB3F8584103E0019B2B60F8E704466C
:102BA0000248FEF7EDF820B203B0F0BD9C190020FA
:102BB0004C1800202DE9F04F87B08946FFF752FFEF
:102BC000074600F5A87318460093FEF7ADF802A873
:102BD0000021012207F025FCBA463D464FF0FF38A0
:102BE00000242B78FF2B0BD02846FFF709FE38B9BD
:102BF000A0469DF808200123A34013438DF8083018
:102C00000134062C05F13805EBD1B8F1FF3F69D04E
:102C100004AE22460021304607F003FC484601215D
:102C2000FFF77CFE00252C46019001239DF808202B
:102C3000A340134229D04946504603F05BFBD346DC
:102C40000146002847D15046FFF768FE019B984295
:102C500007D1335D0433DBB23355AB4288BF042563
:102C600008E007D2335D0233DBB29D4238BF1D4618
:102C70003355EDB2DAF818303BB1335D0133DBB2D6
:102C80009D4238BF1D463355EDB20134062C0AF182
:102C9000380ACAD1012202A8002107F0C2FB9DF820
:102CA00008300022B15CA94202BF012191400B43D0
:102CB00002F1010208BFDBB2062AF3D18DF8083019
:102CC00006A8002340F80C3D39464A4602ABFFF700
:102CD0005FFEDDF80CB0BBF1000F05D1382303FB1C
:102CE000087B01E04FF0000B0098FEF749F85846CA
:102CF00007B0BDE8F08F00002DE9F04F8DB005A8BA
:102D000001F04EF88146614E0DF1120400274F4547
:102D100000F0B88034F9020FFFF7A4FE0546002842
:102D200000F0AC8000F5A8784046FDF7FDFF4FF0BD
:102D3000000A0CAB012203F81DADB4F900000E210E
:102D40000092524600F0E8FF863030D09DF91330F3
:102D5000012B2CD10823ADF818304FF6FF730DF17D
:102D6000300B2BF8103DB6F85A314FF0020C43F0FF
:102D70000103A6F85A31B4F900000521CDF800C0CE
:102D8000524606ABCDF80CC000F0DFFFDDF80CC0FA
:102D9000B4F900000921CDF800C052465B4600F0AE
:102DA000BBFFB4F90000BDF8201003F03DF9082383
:102DB000B4F9000007210093002206AB00F0ACFF3D
:102DC00000282ADB48F2FE029DF818300CA98DF885
:102DD00028309DF8193028468DF829309DF81A3092
:102DE0008DF82A309DF81B308DF82B309DF81C3063
:102DF0008DF82C309DF81D308DF82D309DF81E304B
:102E00008DF82E309DF81F308DF82F30002361E9AA
:102E1000042340220023FFF721FD0223B4F9000020
:102E20000921009300220DF1160300F075FF002820
:102E300006DBBDF81630B3F5A06F28BFA5F85C31EE
:102E40000423B4F900001821009300220DF11603A9
:102E500000F062FFB5F85A310028CCBF43F0800380
:102E600023F08003A5F85A314046FDF789FFB5F8F5
:102E70005A31DB0702D5284602F0C4FE013706F5B9
:102E8000C47644E70DB0BDE8F08F00BF4C180020B9
:102E900013F1860F2DE9F34180460F4616461C4676
:102EA00025D006F0ADFCA3B2054638B90322009246
:102EB00040463946324606F03DFC18E0027E00F1FD
:102EC00010079A420CD031462C763846224607F03D
:102ED0009DFA2846032102B0BDE8F04100F026BD6E
:102EE00030463946224607F081FA0028EBD102B07D
:102EF000BDE8F0812DE9F04F1D46D37989B0FF2B55
:102F0000074688461446129E63D16B78002B60D129
:102F1000172E5ED92B7AFF2B5BD09268E3681343A0
:102F200012D12269636913430ED1A169E0690BBA1A
:102F3000294902BA8B424FF0000008BF824203D1F8
:102F4000236AB3F1807F40D0384605F10801FFF7CE
:102F5000CFFD824600283CD00023A6F118091E466A
:102F6000B9F1000F18DD06F1180205EB020BAA5C9F
:102F7000012A09D102AB2A784046009321465B46DC
:102F800000F07EFD031E24DB9BF8012006EBC20649
:102F9000B6B2A9EBC209E3E704F1080538462946B1
:102FA00002AAFFF775FF294604A8102207F02EFA9F
:102FB000237E0022A3F1FF0463420092384651466B
:102FC00004AA634100F0B0FB03E094F82430FF2B27
:102FD000BAD109B0BDE8F08F000002FF2DE9F04F33
:102FE000924603F1080989B00C4649461F468046BF
:102FF000129E06F005FC9AF80730FF2B40F0BA80CD
:103000007D78002D40F0B680172E40F2B3803B7AD9
:10301000FF2B00F0AF80002800F0AC80AB46183EDC
:10302000002E2DDD0BF11803FA18FB5C0592022B24
:103030000DD0212B16D1059B3A78009300230193E4
:103040000293404651464B4602F066FF0AE006AB4B
:103050003A78204600935146059B00F047FD051E37
:10306000C0F28880059B5B780BEBC30C1FFA8CFBCE
:10307000A6EBC306D4E794F9103001334AD0646854
:10308000002CF8D126464046494606F0B9FB0446D6
:1030900000286FD0437E03F00703022B13D126B123
:1030A000337813B17378002B36D106A9A4F81A80AF
:1030B000257604F110002A4607F0A8F93B7920464E
:1030C000590619D514E026B1337813B17378002B63
:1030D0003DD1002D39D1267E003618BF01263B791F
:1030E0009A061CD4DEB135BB3B795B0602D520467F
:1030F000072102E01EB12046032100F017FC97F9DA
:103100000430002B637EB4BF43F0080323F00803B0
:1031100063762FE0A668B6E7002DC6D12AE0002D21
:10312000E2D0A4F81A80257604F1100006A92A46F8
:1031300007F06CF9D8E7637E03F00703072B19D17A
:103140002046032100F0F2FB14E00026C7E77DB122
:10315000237E9D4209D004F1100006A92A4607F0FB
:1031600045F9B0FA80F0400900E000200646B6E7D5
:103170002E46B4E709B0BDE8F08F00002DE9F04F0E
:10318000904689B005911D468246DDF84890FFF7CC
:1031900069FCD8F8081006460BBAD8F80C007E492E
:1031A00002BA8B424FF0000008BF824298F8083004
:1031B00040F0EF80FF2B00F0EC8098F80730FF2BF9
:1031C00040F0E7806B78002B40F0E380B9F10F0FFF
:1031D00040F2DF8008F1080350461946039306F0D9
:1031E0000FFB074650B9082300933A463B4650462A
:1031F000039906F09FFA074668B9CAE0437E1A07AA
:1032000006D5EA8852BA92B212B923F0080301E057
:1032100043F008037B76EB889CB264B15CBA5F4BE9
:103220005F491B88A4B207F11C00614307F130021B
:103230001BB204F08DFF2B790BB186F85E31B6F826
:103240005A31C3F30D02A6F85A216B791B0203F41D
:1032500040431343A6F85A31AB68ABB1D6F86021AE
:1032600093FA83FB5A450FD003F0C2FC0A21B0FB4E
:10327000F1F202FB110005300BFB00F3B3FBF1F39D
:10328000C6F860B1C6F86431EB6813B11BBAC6F872
:10329000683106F5A870FDF773FDA9F110034FF032
:1032A00000090293CDF81090029B002B4EDD09F12E
:1032B000100305EB030BEB5C032B1BD002D8012B97
:1032C00005D038E0052B0ED0222B22D033E006AB00
:1032D00000932A785B460598414600F0D1FB031E17
:1032E000049328DA55E0504629785A4600F02DFC20
:1032F00008BB4EE0504629785A4600F043FC0028AF
:1033000047D0DBF804301BBAABB19C4228BF1C4647
:1033100011E02878594602F069FE002839D0BBF840
:1033200006305BBA9BB233B13C22B4FBF2F18B4264
:1033300038BF02FB03F49BF80130029A09EBC30982
:10334000A2EBC3031FFA89F90293ADE7049B504631
:10335000039906AAFFF79CFD06F5B670FDF7D6FBAC
:10336000B6F85A31DB0714D504EB4404042C88BFAB
:10337000A1084FF0000498BF0121384686F85F414C
:1033800002F084FDB7F91A0021463A463B4600F0A8
:103390006BFA09B0BDE8F08F000080FE3801002014
:1033A00040420F002DE9F041437E86B003F0070351
:1033B000022B044601D0052B78D194F87020012A05
:1033C0006FD9022B11D140F2FF204FF0807304938C
:1033D000FF238DF81430637B00218DF81530E389CD
:1033E000CDE90201ADF816300BE002AB94E8030022
:1033F00083E8030004F1080393E8030006AB03E944
:103400000300658B013A84F8702015BB01AE30468D
:1034100000F0C6FC0746BD4208D036F91500002171
:10342000224602AB00F020FA0135F4E7214B04F10B
:10343000380528461E88FDF769FB40F2122328460E
:10344000A4F84E301C4904F14C0233B204F080FE63
:103450002CE028B2FFF706FB06462246002102AB0D
:1034600006F5A875B4F91A0000F0FEF92846FDF734
:103470005BFCD6F868810F4B04F1380630461F8894
:10348000FDF744FB40F212233046A4F84E3041468B
:1034900004F14C023BB204F05BFE2846FDF770FCE1
:1034A00004E0B4F91A00214606F0D2F906B0BDE8EE
:1034B000F08100BF4814002040420F00437E03F01B
:1034C0000703042B03D0072B04D1032100E00521BF
:1034D00000F02CBA7047000038B500F5A875044616
:1034E0002846FDF721FC03F083FB0A21B0FBF1F233
:1034F00002FB1100084B0530C4F860314343B3FBB5
:10350000F1F3C4F86431054B2846C4F86831BDE8CE
:103510003840FDF735BC00BF80C3C90140420F00F1
:1035200010B503780446FF2B15D0084600228721EA
:10353000182306F05BF8002270B183681A715A7183
:103540009A71DA71216862689960DA60A168E2684C
:1035500019615A6110BD002010BD38B50B780546C1
:10356000FF2B0C4617D0104688210022182306F0A6
:103570003DF8002280B1836825F01F051D71DA71C6
:103580009A715A71216862689960DA60A168E2688C
:1035900019615A6138BD002038BD08B58521002267
:1035A000082306F023F828B1836800221A715A71A3
:1035B0009A71DA7108BDCB1D002110B50446104682
:1035C00003F0F8020B4600F0CFFD20B182681470C2
:1035D000C368DB08537010BDF8B50F461646911C42
:1035E0001A46FFF7E8FF044660B18568C2680235F5
:1035F0000021023A284606F014FF28463946324692
:1036000006F004FF2046F8BD30B505460C461346CB
:1036100029462246BDE830400120FFF7DDBF30B526
:1036200005460C46134629462246BDE83040022096
:10363000FFF7D2BF73B51446102206460092084623
:103640001946234605F0FCFF0446A0B18368FF221B
:103650000020DA7101460246034600F0ABFB054646
:1036600020B96060204600F06DFE02E083685E8055
:1036700044602846FFE702B070BD30B5022385B034
:1036800000930C46002205210DF10E03054600F0C3
:1036900043FB002803DBBDF80E30062B10D80823AF
:1036A0000093284602210022234600F035FB002823
:1036B00002DBADF80E000EE00023ADF80E300AE09C
:1036C00008230093284603210022234600F024FB10
:1036D0000628E4DDEDE7BDF80E0005B030BD0000C2
:1036E00038B5002006F0E4F8044658B1637E03F0D4
:1036F0000703013B012B03D90A4B00221A600EE09D
:103700002046EFE7074D286806F0D2F8034618B9BF
:1037100006F0CEF8034610B12B60184638BD20469F
:1037200038BD00BFD41900202DE9F7430A9E884612
:10373000994607461446FFF795F9B0F85A319907AC
:1037400001D4002507E03846FFF78CF9B0F85A316C
:103750005A07F6D5802522686368134378D1A2689A
:10376000E368134374D14FF0FF3323700023A37039
:10377000E37023716371A371E37102222372637298
:10378000A372E37223736373A37301236270E37301
:10379000B9F1000F0CD069463846FFF76EFF0146BD
:1037A00030B16846C9B23246FFF739FF70B10646FC
:1037B0002EB198F81030DB0758BF45F02005284699
:1037C00041463246FFF7C9FE814608B930463CE023
:1037D0003846494622460023FFF72CFF054608B924
:1037E000484632E098F81030DFF8788013F0010F87
:1037F00023D003F0FDF9194B2146B0FBF3F606FB8D
:103800001306384605F0FCFF044618B90320144996
:10381000FCF7F8FC00F154073846FDF777F940F261
:103820000223E566A4F86A303846314604F168029E
:10383000B8F9003004F08CFC0DE0B8F9000029461E
:1038400000F04EFA002806DC284600F07BFD02E07E
:1038500045F040059CE703B0BDE8F08340420F000F
:1038600002BD0008481400202DE9FF4707460D4619
:1038700090469946FFF7F6F8824618B90320294981
:10388000FCF7C0FC2DB938464146FFF793F90546D1
:1038900068B1384602A9FFF7F0FE064650B102A80B
:1038A000F1B20022FFF7B0FE044620B935E006462B
:1038B000044600E00446BAF85A31DB0714D5082E56
:1038C0000AD0082300933846032100226B4400F0FD
:1038D00023FA80B208281FD100200F2102AA234614
:1038E00002F000FBC0B1044640462146FFF718FE37
:1038F000064688B1384631464A462B46FFF79AFEBF
:10390000044608B9304608E0074B2146B3F90000E9
:1039100000F0E6F9002802DC204600F013FD04B0B8
:10392000BDE8F08702BD0008481400202DE9F041F1
:10393000437E052923F0070343EA01030446437647
:103940001FD0072903D0042948D1254D05E0B0F93F
:103950001A00FFF787F8D0F86451224B04F13806BB
:1039600030461F88FDF7D2F840F217233046A4F8FE
:103970004E30294604F14C023BB2BDE8F04104F060
:10398000E7BBB0F91A00FFF76DF80646032322469D
:10399000002106F5A87584F87030B4F91A002346A2
:1039A000FFF762FF2846FDF7BFF9D6F868810D4B97
:1039B00004F1380630461F88FDF7A8F840F21223BC
:1039C0003046A4F84E30414604F14C023BB204F0BC
:1039D000BFFB2846BDE8F041FDF7D2B9BDE8F08154
:1039E000404B4C00481400202DE9F0410D4686B0B4
:1039F00002AC8046002D08BF25460021102220463B
:103A000006F00FFDFF238DF80830404602232946BB
:103A10008DF809308DF81730FFF7CCF8074678B1EC
:103A200069464046FFF729FE014638B16846C9B2EB
:103A30000022FFF7E9FD044618B91AE0044600E049
:103A400004462046FFF7A9FD064688B140463146A8
:103A50002A463B46FFF7EEFD044608B9304608E02B
:103A6000064B2146B3F9000000F03AF9002802DCC9
:103A7000204600F067FC06B0BDE8F0814814002045
:103A8000F8B55D7803F1020E3DB38E68CF6856EA53
:103A900007040AD10E694F6956EA070105D11CE0F7
:103AA00090F91010013103D040680028F8D117E0D8
:103AB0008168853A022A0C7815D83CB9ED00AC1E15
:103AC0002B4413F8012D0AB9013CFAE70698714618
:103AD000224606F09BFC2046F8BD6FF01500F8BDAD
:103AE000853A022AEAD96FF08500F8BDF8B55D780D
:103AF0004DB18E68CF6856EA070407D10E694F6949
:103B000056EA070102D16FF01500F8BD882A01D0EE
:103B10000020F8BD991C48B190F91030013303D151
:103B200083681C785CB901E04068F4E7EC08023C6B
:103B3000E4B20B1913F8013C0BB9013CF8E7069805
:103B4000224606F063FC2046F8BDF8B517460D4640
:103B5000FEF788FF7C780646012C0ED1862D0ED10B
:103B600000F5A8752846FDF7DFF87B6828461BBAE4
:103B7000A6F85C31FDF704F901E00020F8BD20460D
:103B8000F8BD0000F0B5537887B0042B0646144604
:103B900035D186291DD1116950690BBA384902BA4D
:103BA0008B424FF0000008BF824212D0237CFF2BD3
:103BB00004D1637C03F00F03022B0AD03046FEF7DA
:103BC00051FFB0F85A31DB0705D594F90330002BCB
:103BD00001DA012052E004F1100730463946FEF7C1
:103BE00087FF054668B9636803B30823009330462E
:103BF0000721002204AB00F08FF8002806DA00202D
:103C00003CE0427CA3789A42EDD10FE002A839460D
:103C1000A27802F0A7FBE378304602A9A27803F06D
:103C2000C003FEF729FF05460028E8D0636833B9D2
:103C3000002DCED030462946FEF748FFC9E71BBA13
:103C40006B61A268013312BAAA610CD00D4B626895
:103C50001B880D4912BA514305F11C0005F13002D1
:103C60001BB204F075FA2B7C23F07F03DBB22B74BC
:103C7000E27822F03F0213432B74AAE707B0F0BDAD
:103C8000000080FE3801002040420F002DE9F34182
:103C900080460C4617461E4600F00CF90546D8B182
:103CA0002146404600F0F4F8691E0446304600F014
:103CB00035FB8CB12189684609B2ADF802700196D6
:103CC000FEF7EEF9002802DC304600F03BFB204610
:103CD00000F004F90446ECE7284602B0BDE8F081A4
:103CE000034607B540F20222019168461946ADF835
:103CF0000220FEF7D5F903B05DF804FB034607B5D3
:103D000040F20122019168461946ADF80220FEF703
:103D1000C7F903B05DF804FB10B5044688B00693FC
:103D20000A9B8DF81410ADF81C304FF40173ADF8F8
:103D30001620ADF8063001A805AB03A92246029370
:103D4000FEF7D2F9049808B010BD10B588B00693FC
:103D50000A9B0446ADF81C3040F203238DF8141082
:103D6000ADF81620ADF8063001A805AB03A9224630
:103D70000293FEF7B9F9049808B010BD074B10B5CF
:103D80001C8821B2814201D1002010BD1CB91880CD
:103D9000FEF730FEF8E76FF00B0010BDD8190020D9
:103DA000034B1B8813B103800120704718467047EE
:103DB000D81900202DE9F0410E4680461746002014
:103DC00003F1080232441D4601464FF0FF3300F074
:103DD000CBF900220446F8B183681E705D705A80EA
:103DE0005A719A711A71B8F1000F08D03EB180680B
:103DF0000278B24203D10830414606F007FB5FB1BA
:103E000055B1A0684378AB4206D1037839460833F0
:103E100018442A4606F0FAFA2046BDE8F081000070
:103E200008B5B1F908200B4B53F822309B6A1BB937
:103E300003200949FCF7E6F9C3B2042B9FBF074BE7
:103E400053F820200A6043F8201094BF00206FF040
:103E5000150008BDB400002002BD0008DC190020D8
:103E6000C3B2042B11D8094A52F820308B4206D134
:103E70001B6842F8203070478A4204D013461A6803
:103E8000002AF9D101E00A681A607047DC190020A5
:103E9000C3B2042B09D8064B53F8200020B1436865
:103EA0008B4203D00068F9E770470020704700BFDD
:103EB000DC190020C3B2042B0BD8074B53F8203079
:103EC00000202BB15A681B688A4208BF0130F8E70E
:103ED00070470020704700BFDC19002028B14368FC
:103EE000006810B142689A42FAD1704749B190F91E
:103EF0001030032B03D0042B06D102F077B905F064
:103F000085BB6FF0150070476FF00100704700002F
:103F100030B5044695B0082104A8FEF73DF9204BC2
:103F2000188880B2208100B2FFF728FF204623685E
:103F30001C495B6898476846FEF72AF940F202225E
:103F4000BDF80230934214D008D8B3F5807FF2D187
:103F5000236820465B6901999847ECE740F2032209
:103F600093420BD0B3F5017FE5D12268019BD56860
:103F700007E0236820461B680199DBE72268019B64
:103F8000156919785A6820461B89A84740F205230D
:103F9000039002A96846ADF80A30FEF7CFF8CAE7E9
:103FA00038010020A93F0008022810B50C460DD1A9
:103FB00091F9100040F2012205492346FFF766FE01
:103FC00020B92046BDE8104000F0BCB910BD00BFCC
:103FD0000000FFFF30B585B0089C74B1256865B15D
:103FE000084D0293009508230194FCF729FF4FF632
:103FF000EA730028D8BF184601E04FF6ED7000B212
:1040000005B030BD113F0008034610B5114C072B19
:1040100088BF033320688CBF23F0030308230021EB
:10402000B0B14268934202D901460068F8E7D21A5B
:10403000072A05D8036809B9236010BD0B6010BDBD
:10404000034409B9236000E00B60016883E80600BF
:1040500010BD00BFF019002010B51D4C1D4B041BF6
:10406000B4F5C05F1A681C4630D2002322B18242E8
:1040700002D213461268F9E7072986BF033121F0FF
:1040800003010821026041600BB9206010E05A680A
:1040900018601A44821A072A0AD818B903200E4950
:1040A000FCF7B0F80268C01A014418461A6059605B
:1040B00003685BB1426802449A1A072A9FBF1A68D4
:1040C00002601A1A5B689CBF9B18436010BD00BF5A
:1040D000F4190020F019002002BD00082DE9F84372
:1040E000814614200E4615469846FFF78DFF04467C
:1040F000C0B12846FFF788FF074630B92046142193
:10410000FFF7AAFF3846BDE8F8830123C4F80490FE
:10411000E560A06084F8108023601EB131462A4615
:1041200006F074F92046BDE8F883000010B50B4C8A
:104130002046FCF7F9FD0A4B0A4A182113600022B9
:104140002046BDE810401A705A709A70DA701A71E1
:1041500059719A71DA71FCF713BE00BFF431002077
:10416000F4190020F0190020F8B51D46531EB3F5D0
:10417000C05F07460E4614460ED20848FCF7D4FD31
:10418000224631462B463846FFF7A8FF044603482F
:10419000FCF7F6FD2046F8BD0020F8BDF431002004
:1041A0002DE9F8430E46072988BFCF1C0446364840
:1041B0008CBF27F0030708279146FCF7B5FD2EB109
:1041C00024B1E3689E4201D8A2682AB92E48FCF7C0
:1041D000D7FD0020BDE8F8839E4207D184F81090F7
:1041E0002948FCF7CDFD2046BDE8F8831420FFF7F1
:1041F0000BFF05460028E9D0BE4203D3E3689B1BB2
:10420000072B2AD83046FFF7FFFE074610B928468D
:1042100014210BE0E068801BFFF7F6FE804640B9F2
:1042200028461421FFF718FF38463146FFF714FFE0
:10423000CCE7A1683246384606F0E8F8A168E268A3
:104240003144921B404606F0E1F8A068E168FFF7B0
:1042500003FFAF60C4F8088004E0A3688360A3682C
:104260003344A360E36808489B1BE3606368EE6027
:104270006B60012385F810902B606560FCF780FD72
:104280002846BDE8F88300BFF431002070B504462D
:10429000072988BFCE1C1E488CBF26F003060826BF
:1042A0000D46FCF741FD34B1A06820B1194BC31A8B
:1042B000B3F5C05F03D303201749FBF7A3FF25B96C
:1042C0001348FCF75DFD0C2070BDE1688D421AD0EB
:1042D00002D8891B072912D82846FFF795FE064603
:1042E0000028EDD0E268A168AA4228BF2A4606F05D
:1042F0008DF8A068E168FFF7AFFEA66002E03044E9
:10430000FFF7AAFEE5600248FCF73AFD002070BD09
:10431000F4310020F419002002BD000838B504462D
:1043200007480D46FCF700FD24B123682B442360A9
:104330006468F9E70248BDE83840FCF721BD00BFDA
:10434000F431002038B504461248FCF7EDFCDCB12E
:10435000114BE31AB3F5C05F03D303200F49FBF7FA
:1043600051FF94E82800012B0AD10023A068E168DE
:104370002360FFF771FE20461421FFF76DFE01E078
:10438000013B23602C46E2E70248BDE83840FCF7D9
:10439000F7BC00BFF4310020F419002002BD000872
:1043A00038B504461148FCF7BFFC0CB1E26822B9ED
:1043B0000E48FCF7E5FC002038BD2368012B0FD91F
:1043C0006068A16894F91030FFF788FE054610B1C7
:1043D0002368013B23600548FCF7D2FC284638BD22
:1043E0000248FCF7CDFC204638BD00BFF431002068
:1043F000884210B5044601D1446808E003465A6873
:104400002AB18A4201D01346F9E74A685A6000236C
:1044100008464B60FFF796FF204610BD2DE9F0419E
:104420009AB008210AA8FDF7B7FE824B0120089335
:10443000814B07A91B88ADF82430FFF7F1FC40F24F
:104440000523ADF80E3001A8FDF7A2FEBDF8063039
:10445000B3F5017F0CD840F2032293427FD240F2A1
:10446000012293420CD040F20222934217D0EAE795
:1044700040F225229342E6D1029800F0F5F9E2E7F6
:10448000029D2846FFF78CFF044640B3054695F988
:104490001060012E6BD06D68002DF8D1C5E0029D33
:1044A000EDB1EB68072B1AD96B68C3B193F91030E3
:1044B000022B14D12846FFF773FF044678B18768B2
:1044C0000026B7F9020001F0BDFD8046606818B112
:1044D000C36840681E44FAE7B8F1000F01D12846CE
:1044E000A4E098F8043023B1204601F0C5F870B973
:1044F0009BE0012201461346FFF736FE002800F03C
:104500009480636841224360606083681A706268C7
:1045100000231AB1D16852680B44FAE7B8F80210C8
:104520008B4207D8B7F902002146FFF7D9FB0028D4
:1045300089DC7AE0414B5968002976D1B6F5006FE5
:1045400073D279889A8140F2252205A819805C608F
:104550009E60ADF816200693FDF744FD73E76FF0FB
:10456000850301A803A90493FDF7E8FD6BE7EB6859
:10457000002B5AD0AB681B78412B12D12846FFF78D
:104580000FFF0546002850D031463246FFF708FE9F
:104590000146002849D02046FFF72AFF022304469F
:1045A00038E003F0D802C02A03D1204600F068FAB0
:1045B00049E703F0E003602B37D1002001462822B1
:1045C0000223FFF7D1FD059010B9059880B92CE0C2
:1045D0000022214605A8134600F05AFC0146002897
:1045E000F3D020463246FFF7DBFD014618B90598A7
:1045F000FFF7A8FE19E02046FFF7FAFE059A0446E9
:1046000013461BB1596809B10B46FAE76168596056
:10461000626000232B740220064940F201222346E7
:10462000FFF734FB00287FF40EAF2046FFF78AFE29
:1046300009E700BF0000FFFF38010020FC31002027
:104640001FB50B4C208803B2002B0DDC094B0A4828
:10465000009300230193094B4FF4806102930322DE
:104660000823FCF7EDFB208000B204B010BD00BFB2
:104670000C3600201D4400080C32002005C4000840
:1046800038B50E4C142303FB0044103463880546F0
:1046900063B10020FCF7A2FD094BB0FBF3F0094B1E
:1046A00053F82530984206D300236380637823F0C3
:1046B0001003637038BD1B1A638038BD0E360020AE
:1046C00000879303503700202DE9F04100248046F5
:1046D0001048FCF729FB264627460F4DE0B2FFF7AE
:1046E000CFFF2B7C53B12846414601F018FE2B7CAE
:1046F000834203D8B84284BF2E4607460134102CAB
:1047000005F11405EAD10348FCF73AFB3046BDE851
:10471000F08100BF903700200E3600200F2838B5FA
:10472000044614D80B48FCF7FFFA2046FFF7A8FF11
:10473000094B142000FB04352C7C06481CB1FCF707
:104740001FFB284638BDFCF71BFB204638BD002068
:1047500038BD00BF903700200E3600202DE9F84309
:104760000F280646884615461F469DF8209041D8DA
:10477000002A42D02248FCF7D7FA224C142303FB2C
:104780000643002F08BF4FF00009802D88BF80220C
:104790005F828CBF1A741D74B9F1000F02D046F00D
:1047A000100300E03346142575432C4463742046FF
:1047B000414601F09FFD68B9124B41465853227C97
:1047C0006080A080E08020816081A081E08120461F
:1047D00001F0C8FD0020FCF701FD0B4BB0FBF3F02E
:1047E0000A4B0744064843F82670FCF7C9FA2046EE
:1047F000BDE8F8830020BDE8F8831046BDE8F883E3
:10480000903700200E360020008793035037002099
:10481000F8B505460F4610F8081B164601F10802C8
:104820002A446B78FFF7C6FA0446D0B183686A88D9
:1048300000205A802A79B7421A716A7901465A7162
:10484000AA799A713A464FF0010328BF3246FFF722
:104850008BFC054620B92046FFF774FD2846F8BDBD
:1048600060602046F8BD00002DE9F04F054685B098
:10487000B0F9000001F0E6FB0746D5F804A00023DC
:10488000DAF804401CB1E26864681344FAE727B917
:104890005046FFF757FD6F60EDE0B5F80CB0BBF187
:1048A000000F5AD1DFF8D491D5F80880B9F800206C
:1048B000C3EB08060132A9F800207A88B6B2043AA0
:1048C000324402F0F802961BB6B21946DAF8080034
:1048D000321DFFF79DFF0346002856D0426898FA24
:1048E00098F8D2F808B0ABF800809BF8002062F08E
:1048F0003F028BF80020B9F8002052BAABF8022032
:10490000DAF80490B9F1000F16D0D9F80C20C4EBF6
:104910000608904528BF9046201D44445844D9F8C5
:1049200008104246A4B2009305F070FDB442009B0B
:1049300002D2D9F80490E5E71946B7F900000093D0
:10494000FFF7CEF90028009B02DC1846FFF7FAFCBF
:10495000DCB1AB891C44AC817EE09B4580F0878054
:104960007E88D5F808C0053E06F0F806CBF10501B3
:104970001944DAF80800721DCDF804C00093FFF75F
:1049800047FF9DE80810814628B96868FFF7DAFC00
:1049900000236B606FE042689CFA9CF19268DC44F3
:1049A00011801178C3EB0C0361F01F0111703349C2
:1049B000DB08098802F1050849BA51801371DAF859
:1049C00004A0BAF1000F1CD05C4518D0DAF80C3006
:1049D00098B20444A4B25C45F1D95844021B92B287
:1049E0009C1AB44228BF3446DAF8081040461144F5
:1049F000224605F00BFDA4B2DAF804A002E0002480
:104A000000E05446B44217D2BAF1000F14D0DAF8DD
:104A10000C30C4EB060B9B4528BF9B4608EB0400FB
:104A20005C44DAF808105A46A4B205F0EFFCB44230
:104A300003D0DAF804A0E7E72646B7F900004946B4
:104A4000FFF74EF9002802DC4846FFF77BFC002EFA
:104A50009BD0AB891E44AE8140F2252302A8ADF85D
:104A60000A300395FDF7BEFAFCF7C8F903E050469B
:104A7000FFF768FC6C6005B0BDE8F08F9837002048
:104A800010B54368826899681378044603F0F80308
:104A9000C02B06D0E02B0CD11379C268DB00053A9D
:104AA00002E0C2680023043A0846214600F010F8EC
:104AB0002046BDE81040FFF745BC036833B11968D4
:104AC00000229A80DA801A600160F6E7436070473E
:104AD0002DE9F04F074689B000209846049116460C
:104AE0008D68FCF77BFBA94BA94CB0FBF3FA04F1F2
:104AF000900B4FF00009606810B3A268C2EB0A0384
:104B0000032B05D9FFF71EFC2046FFF7D6FF09E06F
:104B1000B9F1000F05D0D9F808309A4238BFA14644
:104B200000E0A14624345C45E5D1B9F1000F07D07F
:104B3000D9F8040020B1FFF705FC4846FFF7BDFF98
:104B400097F8009007F10803019309F10803FB1897
:104B500002932B8800205BBAC3F30A0300936B888F
:104B600097F801A05BBAADF816309BB20693FCF73C
:104B700035FB864B0024B0FBF3F3A3460393854B30
:104B800053F8102C002A00F0F980D26800998A426C
:104B900020D15A8906998A421CD11A7A4A4519D1DC
:104BA0005A7A524516D1A3F1080001994A46079353
:104BB00005F01CFC079B68B918460299524605F09F
:104BC00015FC079B30B9724C242303FB0B44039B59
:104BD000A36033E024B953F8102C0AB9A3F11404EC
:104BE0000BF1010BBBF1040F03F12403C8D12CB36B
:104BF00000200146009A0123FFF7B6FA6060002802
:104C000000F0C080836800210020C3E90001039BFD
:104C10000199A3604A4604F10C0005F0F7FB04F18A
:104C200014000299524605F0F1FBBDF8163084F8E5
:104C30001C90E383002384F81DA02384002C00F043
:104C4000A180D4F80090B8F1000F19D12B79412B35
:104C500002D10535013E16E003F0E003602B05F1BB
:104C6000040510D16368201DDA680499042300F05C
:104C70000FF9002879D028360544361A282203E097
:104C80000535002200E04246606806EB0803C16873
:104C90008B426BD81FFA88F1B9F1000F17D0B9F821
:104CA00004E04B1E33448E459BB203D2B9F806C0D4
:104CB0008C455BD2714501D29E4557D98E4503D1B3
:104CC000B9F80610994251D0D9F80090E2E701F105
:104CD000FF3EB6441FFA8EFE2F4B03EBC903B3F819
:104CE00006C0BCF1000F11D1ABB199802168A3F8C7
:104CF00006E019602360238C806890443344238449
:104D000040442946B21A05F081FB04E009F101098B
:104D1000B9F1280FE0D16368228CDB689A4231D167
:104D200004F10C00217F04F11402637FFFF742F8C5
:104D3000D8B17A8883685A803A791A71BA799A71A7
:104D40007A795A710023436063682BB15A680AB1BB
:104D50001346FBE7586000E0606002200F4940F214
:104D600001226368FEF792FF10B96068FFF7EAFA64
:104D7000204609B0BDE8F04FFFF79FBE002C7FF43E
:104D80002FAF2BE709B0BDE8F08F00BF40420F0006
:104D90009C370020B03700202C3800200000FFFF97
:104DA0000023042A10B54370037016D0082A02D0DD
:104DB000022A26D118E00B7883F0020303704B78A7
:104DC00043708B788370CB78C3700B7903714B7908
:104DD00043718B798371CB7911E00B7883F00203F7
:104DE00003704B7843700223FF240022C470FE241A
:104DF000827004714271CA5C0B4482715B78C3712A
:104E000010BD184610BD037823F00F0343EA1113B9
:104E10000370437803F00F0343EA011141707047B8
:104E200073B504466B461546184A0E46106851681D
:104E300003C32CB3637CDB0624D4227C802A1DD0E0
:104E4000402A1FD9D208501CD11F30442944C2F136
:104E50000F0205F0CBFAA8B9237CD9080D44725C87
:104E600003F0070302A915F8080C0B4413F8083CDB
:104E700042401A420CBF0120002004E0012002E061
:104E8000204600E0002002B070BD00BF09C4000849
:104E90002DE9F74F99464B6888469E688B68174600
:104EA0000093019018B90320D649FBF7ABF9019B99
:104EB0001B68002BF7D0DA68272AF4D9D3F808A0AA
:104EC000009B03EB090494F90120002A9AF80020C2
:104ED000A8BF4FF0020B02F00F0242F060028AF806
:104EE000002013F80920B8BF4FF0030B02F018029E
:104EF000082A2FD01CD8002A68D114F80B1050466D
:104F0000FFF781FF04EB0B00427802F00F019AF8E3
:104F100001200A438AF8012080789AF802100BF1E8
:104F2000030201438AF80210A15C0BF1040B33E089
:104F3000102A35D0182A49D150460021FFF763FFC7
:104F40009AF8012022F00F028AF8012000228AF844
:104F5000022039E014F80B2004EB0B0192099200B7
:104F600042F060028AF800209AF8012002F00F0057
:104F70008AF8010014F80B2002F00F0202438AF8AD
:104F8000012048789AF802100BF1020201438AF8D6
:104F90000210A15C0BF1030B9AF803200A4313E003
:104FA00014F80B105046FFF72EFF9AF801200BF172
:104FB000010522F00F028AF8012000228AF802205F
:104FC0008AF80320AB4601E08AF80320009B13F81F
:104FD0000920530758BF14F80B20009B58BF8AF8CC
:104FE000062013F8092058BF0BF1010B02F0030251
:104FF000022A0AD0032A0AD0012A09D014F80B2069
:105000000BF1010B8AF8072004E0402200E0FF22A8
:105010008AF80720627802F0400101F0FF0569B1CB
:1050200015064ABFA0780020000912F0300505D00F
:10503000FFF774FB0546002800F01783627802F042
:105040007002302A00F0898010D8102A3DD0202A22
:1050500058D0002A40F0E88004EB0B010AF1080068
:10506000102205F0D3F90BF1100BDDE0502A00F00F
:10507000918024D8402A40F0D78000228AF8082066
:105080008AF809208AF80A208AF80B208AF80C206E
:105090008AF80D208AF80E208AF80F208AF810204E
:1050A0008AF811208AF812208AF813208AF814202E
:1050B0008AF815208AF816208AF81720B4E0602AAA
:1050C0007BD0702A00F0A080AEE06FF001010022DA
:1050D0008AF808106FF07F018AF809108AF80A2010
:1050E0008AF80B208AF80C208AF80D208AF80E2006
:1050F0008AF80F200AF1100004EB0B01082205F0DA
:1051000085F957E06FF07F0000226FF001018AF807
:1051100009004FF0FF308AF808108AF80A208AF850
:105120000B208AF80C208AF80D208AF80E208AF8C5
:105130000F208AF810208AF811208AF812208AF8A5
:1051400013008AF814108AF815200AF1160004EBEF
:105150000B01022205F05AF950E006F108013278FD
:105160000AF11000FFF71CFE6FF0010100228AF81F
:1051700008106FF07F018AF809108AF80A208AF86F
:105180000B208AF80C208AF80D208AF80E208AF865
:105190000F2049E0002D3FF486AE04EB0B010822FE
:1051A0000AF1100005F032F90AF1080029462A7CBC
:1051B00001F0D8F80BF1080B36E0002D3FF473AE88
:1051C0004FF0FF3100228AF813106FF001018AF8C6
:1051D00010208AF811208AF812208AF814108AF810
:1051E000152004EB0B0102220AF1160005F00EF95E
:1051F0000AF1080029462A7C01F0B4F80BF1020BF1
:1052000012E000BF02BD0008002D3FF44CAE06F1D5
:10521000080132780AF11000FFF7C2FD0AF1080018
:1052200029462A7C01F09EF8627850070DD51106B8
:105230004ABFA078002000F00F00920705D0FFF7CA
:105240006DFA0546002800F01082627802F00F0225
:105250000C2A00F20A82DFE812F00D001700340079
:105260005F0008027D008D00AE000D00BD00EE0065
:105270001F01490104EB0B010AF11800102205F08F
:10528000C5F80BF1100B78E16FF0010100228AF8EC
:1052900018106FF07F018AF819108AF81A208AF81E
:1052A0001B208AF81C208AF81D208AF81E208AF804
:1052B0001F200AF1200004EB0B01082205F0A6F8DC
:1052C00055E06FF07F0000226FF001018AF81900AD
:1052D0004FF0FF308AF818108AF81A208AF81B203D
:1052E0008AF81C208AF81D208AF81E208AF81F20C0
:1052F0008AF820208AF821208AF822208AF82300C0
:105300008AF824108AF825200AF1260004EB0B0104
:10531000022205F07BF84BE0317872780831314495
:105320000AF12000FFF73CFD6FF0010100228AF82E
:1053300018106FF07F018AF819108AF81A208AF87D
:105340001B208AF81C208AF81D208AF81E208AF863
:105350001F2012E104EB0B0108220AF1200005F0E6
:1053600055F80AF1180029462A7C00F0FBFF0BF1E2
:10537000080B02E14FF0FF3100228AF823106FF092
:1053800001018AF820208AF821208AF822208AF850
:1053900024108AF8252004EB0B0102220AF12600D2
:1053A00005F034F80AF1180029462A7C00F0DAFFEB
:1053B0000BF1020BE1E031787278083131440AF1E7
:1053C0002000FFF7EDFC0AF1180029462A7C00F0C6
:1053D000C9FFD2E000228AF819208AF81A208AF838
:1053E0001B208AF81C208AF81D208AF81E208AF8C3
:1053F0001F208AF820208AF821208AF822208AF8A3
:1054000023208AF824208AF825208AF826208AF882
:105410002720FF228AF8182014F80B200BF1010135
:105420008AF819200AF123002144052204F0EEFF36
:105430000BF1060BA1E000228AF819208AF81A2045
:105440008AF81B208AF81C208AF81D208AF81E2062
:105450008AF81F208AF820208AF821208AF8222042
:105460008AF823208AF824208AF825208AF8262022
:105470008AF82720FF228AF8182014F80B200BF155
:1054800001018AF819200AF125002144032204F0C1
:10549000BDFF0BF1040B70E000228AF827208AF888
:1054A0001A208AF81B208AF81C208AF81D208AF806
:1054B0001E208AF81F208AF820208AF821208AF8E6
:1054C00022208AF823208AF824208AF825208AF8C6
:1054D0002620FF228AF8182002228AF8192014F8C0
:1054E0000B200BF1010B8AF8272046E000222E7CCE
:1054F0008AF818208AF819208AF81A208AF81B20BE
:105500008AF81C208AF81D208AF81E208AF81F209D
:105510008AF820208AF821208AF822208AF823207D
:105520008AF824208AF825208AF826208AF827205D
:105530002A7C0AF15800402A84BF40222A74FF22A4
:105540008AF8182014F80B2029468AF8192004EB51
:105550000B0252788AF81A202A7C8AF81B202A7CAF
:1055600000F000FF0BF104010AF1240021440422A1
:1055700004F04CFF0BF1060B2E743FB9D8F80C2049
:10558000CBEB020252BAAAF8042003E0283F7FBA0C
:10559000AAF80470009B13F809305B0767D514F86C
:1055A0000B3003F0F803F02B61D1019B00201D6844
:1055B000082201460423D8F80840AE68FEF7D4FD5F
:1055C0000BF1010714F80B2000284ED002F0030263
:1055D000022A836815D0032A21D0012AE25D04EB58
:1055E0000B011A708A785A7005D0CA789A700979B6
:1055F0000BF1050211E0C9780BF10402A1F580510D
:1056000019E0E25D04EB0B01A2F5805252BA1A8058
:105610008A789A70C9780BF10402D9700DE0E15DC7
:105620000BF102020F09A7F575677FBA01F00F01B0
:105630001F80A1F5756149BA5980A15C1444997124
:1056400002F1020C6278DA71D8F80C200832CCEB47
:10565000020252BA23F8042F1122B2711B88B380C0
:10566000019B45601860604602E0002000E058465B
:1056700003B0BDE8F08F00BF2DE9F04F4368D0F8CC
:1056800008A08146002089B09D68DA6801460123A0
:10569000FEF76AFD4FF0000C0290002800F0138125
:1056A00086686023337086F801C005F10803039310
:1056B000AA68EB68134340F008812A696B691343B9
:1056C00040F0038167462B7EFF2B06D005F11800C2
:1056D000FEF7FAFF80461FB907E0BFB14FF00008A0
:1056E0007B7C180701D0D90608D4B8F1000F0ED082
:1056F00098F811301A070AD0DC0608D5737803240D
:1057000063F07F0373700023B37001E0B846022496
:105710002A68287822F4704222F0FF026B78BAB926
:105720001A0942EA001313F0FF0F33781FBF621CFF
:1057300043F0100333706B781BBF29781B0943F0CB
:10574000180343EA011316BF3355337094B22DE0AA
:105750001B0900F0030253EA021204F101010FD108
:10576000337843F0080333702A688BB212BAC2F35D
:1057700003412A78C2F3810241EA821232550AE0DB
:1057800043EA001333552A68A31C12BA89B2C2F344
:1057900003429BB272542A689C1C12BAC2F30722BD
:1057A000F25401339BB20022A4B2F254AB79112B14
:1057B0005FD14FF2B002D9F8043058688368B3F86B
:1057C00000B059889BFA9BFB1FFA8BFB2BF00F0E46
:1057D0001FFA8EFE964519D14ABA22F00F02120422
:1057E000120C724512D10321A9715A8852BA1FFABC
:1057F00082FE1A8852BA92B20EEB021202F5AA6227
:105800001A709A795A70DA799A7025E049BA01F4D7
:105810007F41B1F5704F04D10122AA715A8852BA62
:105820000CE00BF47F4BBBF5704F0ED10222AA7136
:105830001A8852BA1A709A785A70DA789A709A79E5
:105840000521DA70DA791A7106E00022AA719A79D4
:1058500006211A71DA795A71AB794FF0010B63F0B6
:105860000F03AB71FEF712FD337843F0040333707E
:1058700004E0621C33554FF0000B94B2EB79402BDF
:1058800007D0FF2B0AD0012B0CD1337843F0010352
:1058900002E0337843F00203337006E0337843F0DC
:1058A0000303F9E7621C335594B2AA68EB6852EA25
:1058B00003010FD12A696B69134340F09981737812
:1058C00043F0400328E0029896E10398FEF7FCFEBF
:1058D0000746F8E6002F00F071817B7CD80600F1C6
:1058E000288108AB0020002163E904019AF8002018
:1058F000022A40F02B8118460AF10801FFF750FAFE
:10590000DDE9042369692869994208BF904240F0A3
:105910002C81737843F0300373702B7EFF2B79D189
:10592000737843F0080272706A8B002A3CD1EA69EE
:10593000002A39D12A8CBABB6A7E022A0FD12A6A80
:105940006AB9AA8C5AB995F8262042B943F00B03DC
:10595000737095F82720631C32559CB2C5E06A8CA1
:105960008AB995F8242072B943F00A0373706B7EEC
:10597000601C80B23355304405F12501032204F048
:1059800045FD0434B0E095F82220002A40F0A580BF
:1059900043F0090373706B7E601C80B23355304452
:1059A00005F12301052231E0AB8B04A8ADF81030DE
:1059B000EB8BADF812302B8CADF814306B8CADF84E
:1059C0001630FEF781FE002800F08780437CDA065F
:1059D00040F18380027CEB7E9A427ED1737805F1A0
:1059E000240143F004037370437CA01C13F00F03E5
:1059F00018BFB27880B21CBF1343B3706B7E3044C3
:105A00003355AA7E631C9BB2F254042204F0FEFCC0
:105A1000063469E0B8F1000F03D098F81130DB06C6
:105A20000AD4A969E8690BBA754902BA8B424FF0EA
:105A3000000008BF824250D19AF80130002B4CD0B0
:105A4000B8F1000F0BD0737843F00403737098F82B
:105A5000113013F00F031EBFB2781343B3709AF8DE
:105A600000109AF801200831514404A8FFF798F972
:105A7000DDE90423696A286A994208BF904204D18B
:105A8000737843F0030373702FE0404605F118016B
:105A900004AAFFF7C5F90028F2D12B6A3019B3F137
:105AA0007F4F73780FD1AA8C52BA92B2B2F57E4F63
:105AB00009D143F00203737005F12601022204F0BC
:105AC000A5FC023410E043F00103737005F12001DE
:105AD000082204F09BFC083406E0301905F1180197
